:100000004AC000007BC0000079C0000077C000003B
:1000100075C000004FC5000036C500006FC000006D
:100020006DC000007CC4000069C0000067C0000013
:1000300065C0000063C0000061C000005FC0000038
:100040005DC000005BC0000059C0000057C0000048
:1000500055C0000053C0000051C000004FC0000058
:100060004DC000004BC0000049C000008DC400001E
:1000700085C400008FC4000041C0000045464765AC
:10008000666700202B2D2E30313233343536373829
:10009000396800007C0611241FBECFEFCDBFDFE31F
:1000A000DEBF8091400080934000811105C098ED33
:1000B00021E094BF209341008CBB2DE3ACE1BCE375
:1000C00001C01D92A430B207E1F71CE3A0E0BCE33D
:1000D000EBE0FCE102C005900D92AC31B107D9F71D
:1000E00010E0CBE4D0E004C02197FE010E94980DFF
:1000F000CA34D107C9F71DD60C94AD0D81CF9091AC
:10010000150896FFFCCF8093180882E080931408AE
:10011000809115088295817091E089270895892B37
:10012000C9F08FEF9FEF8093783C9093793C81E00A
:1001300084668093170880911508807CE1F3809194
:10014000150883FD09C0809115088295817091E0A2
:100150008927089580E0ECCF80E00895EF92FF9228
:100160000F931F93CF938C0190E080E0D8DF811133
:1001700002C0C0E021C081E1C2DFC82F8823C9F3DB
:100180001092013D78018FEFE81AF80A085F1F4FBF
:10019000F70181917F01B3DF882329F08091013D30
:1001A0008F5F8093013DE016F10691F78091013D4C
:1001B000873049F4809314088C2FCF911F910F91B1
:1001C000FF90EF90089587E080931408D2CFCF93EB
:1001D000DF93EC0190E080E0A2DF811102C080E0BB
:1001E00032C080E18CDF8823D1F38FEF9FEF97DF60
:1001F0008823A9F3FE019E01285F3F4F46E052E0AD
:100200008091783C9091793C009729F001978093F8
:10021000783C9093793C8091150887FFFCCF8091C2
:1002200018086091783C7091793C672B79F0509375
:10023000140881932E173F0719F787E0809314085D
:1002400081E0CD2B61F2DF91CF91089540931408A6
:10025000F0CFCF93DF93CDB7DEB72897CDBFDEBF0A
:1002600089EF9CE3B4DF882399F12091F93C922F28
:1002700092959F703AE02F70939F200D11242336A2
:1002800081F09091FA3C492F42954F709F70439FA7
:10029000900D11249B3329F0222319F091509C33A7
:1002A000B8F08981982F92959F708F703AE0939F54
:1002B000800D1124821748F488E0FE013196A9EFE1
:1002C000BCE301900D928A95E1F7CE0101967FDFA4
:1002D0002896CDBFDEBFDF91CF9108958FB7F894F8
:1002E0006091210A90910B0A20916E3C30916F3CF5
:1002F0004091703C5091713C8FBF8EEF861B91FFF7
:1003000006C0843020F42F5F3F4F4F4F5F4F93E084
:10031000899FF0011124982F92959F70E91BF10994
:1003200086958695E80FF11DA0E3B3E00E948E0D3F
:100330006E0F7F1F811D911D08952FB7F894609156
:10034000723C7091733C8091743C9091753C2FBFCE
:100350000895AF92BF92CF92DF92EF92FF920F93E8
:100360001F93CF93DF936C017B018B01040F151F4B
:10037000EB015E01AE18BF08C017D10759F06991B3
:10038000D601ED91FC910190F081E02DC601099517
:10039000892B79F7C501DF91CF911F910F91FF90C4
:1003A000EF90DF90CF90BF90AF900895FC015785FC
:1003B0004089252F30E0842F90E0821B930B541747
:1003C00010F04F96089501970895FC019585868554
:1003D000981761F0A685AE0FBF2FB11D51968C9175
:1003E00096859F5F9F73968790E008958FEF9FEFAC
:1003F0000895FC0195858685981731F08685E80F6C
:10040000F11D818990E008958FEF9FEF0895FC0121
:1004100095852685892F90E0805C9F4F821B9109EE
:100420008F7399270895DC010FB607FE04C08091F1
:1004300011018823B1F01896ED91FC9119978481F0
:1004400085FF0FC01F969C911F9750968C91981313
:1004500004C085818F7D85830895EAE7FCE3E894F5
:10046000A6C208950F931F93CF93DF93EC018C8561
:1004700081608C879F85888998130BC0E885F985F2
:10048000848185FF06C08C8581FD0DC080E4848356
:1004900012C0062F1F851F5F1F718889811315C029
:1004A000CE01C1DFFACF85818F77806490E4948399
:1004B000E885F9858583E885F985628381E090E0A8
:1004C000DF91CF911F910F910895EF85EC0FFD2FD4
:1004D000F11DEF5AFF4F00831F878C85E885F98552
:1004E00081FF09C085818F77806690E49483E885D9
:1004F000F9858583E3CF85818062FBCFCF93DF933E
:10050000EC018C85882359F0E885F985858185FD86
:1005100003C0848186FD03C0CE0185DFF5CFDF9166
:10052000CF910895E0E2F4E081E0818382E081836D
:10053000F89484818E7F848384818D7F84837894F2
:100540000895E0E2F4E084E0818388E08183F89418
:1005500084818B7F84838481877F848378940895CA
:10056000F89480EF8093250480E280934604789489
:100570000895F89480E2809346048EEF80930604F9
:1005800080EF80932504789408958631F0F490E00C
:10059000FC01E853F44620812F3FB9F0FC01EE54F2
:1005A000F446E08130E2E39FF0011124FC5F61300A
:1005B00069F4218384569446DC018C91E80FF11D87
:1005C0008089613029F08860808B08952283F2CF82
:1005D000877FFACFCF92DF92EF92FF920F931F9314
:1005E000CF93DF938C01EB0179DE60931E3C709317
:1005F0001F3C8093203C9093213CC090273CD0909E
:10060000283CE090293CF0902A3C6C197D098E0929
:100610009F09C090003CD090013CE090023CF090DB
:10062000033C6C157D058E059F0508F45EC08EEFBA
:100630008093060480EF80932504F89480911C3CFD
:1006400090911D3C21E130E0082E01C0220F0A9458
:10065000EAF7207F20932704080F191FF8018081F3
:100660008F3F09F44EC090E0CD2B09F047C084586D
:100670009446FC01808181B9789490E00E94700DCD
:1006800025E030E0DC010E94880D06E410E020E067
:1006900030E068017901C61AD70AE80AF90AD701D9
:1006A000C6018093003C9093013CA093023CB09320
:1006B000033C80911C3C90911D3C01968430910537
:1006C00014F580931C3C90931D3C80911E3C9091AE
:1006D0001F3CA091203CB091213C8093273C9093FB
:1006E000283CA093293CB0932A3CDF91CF911F91E5
:1006F0000F91FF90EF90DF90CF9008958E59944620
:10070000B8CF80E0B8CF10921C3C10921D3CDDCFDA
:10071000CF92DF92EF92FF9210DE6B017C01C092CC
:10072000233CD092243CE092253CF092263C8091E0
:100730002B3C90912C3CA0912D3CB0912E3CA701DC
:100740009601281B390B4A0B5B0BDA01C901843F68
:100750009140A105B105B0F08091643C882309F473
:1007600060C077DD76DD75DD882309F45AC081E04D
:100770008093223CC0922B3CD0922C3CE0922D3CAA
:10078000F0922E3C8091223C882309F44DC0809148
:100790005D3C90915E3C992309F44BC0811144C0AB
:1007A0008091FC3C982F92959F702AE08F70929FC9
:1007B000800D1124622F0E943D0D392F0E943D0DA6
:1007C0009093EB3C3093EC3C8091FB3C982F9295BE
:1007D0009F708F70929F800D11240E943D0D392FC4
:1007E0000E943D0D9093ED3C3093EE3C8091FA3C9D
:1007F000982F92959F708F70929F800D11240E9468
:100800003D0D392F0E943D0D9093EF3C3093F03C0D
:1008100070E060E08BEE9CE3FF90EF90DF90CF9074
:10082000D9CE1092223CA6CF70E060E084E09CE339
:10083000F3CF8823C9F38091FE3C982F92959F7047
:100840002AE08F70929F800D1124622F0E943D0D2F
:10085000392F0E943D0D9093F13C3093F23C8091F2
:10086000FF3C982F92959F708F70929F800D11245E
:100870000E943D0D392F0E943D0D9093F33C309323
:10088000F43C8091003D982F92959F708F70929FBD
:10089000800D11240E943D0D392F0E943D0D909333
:1008A000F53C3093F63C70E060E081EF9CE3B4CF20
:1008B000CF93DF9300D000D0CDB7DEB740915E9BE1
:1008C00050915F9B6091609B7091619B49835A83BB
:1008D0006B837C83DC01FE013196AC014B5F5F4F83
:1008E000CF016AE02D91222389F0A417B50771F09A
:1008F00030ED320F3A3018F430833196F3CF215473
:100900002A3110F42083F9CF6083F7CF61E070E0E3
:1009100061DE2496CDBFDEBFDF91CF9108958F9326
:1009200082E080930B0A8FB78F93EF93FF93EEE6ED
:10093000FCE39F9368948FEF0DC0E89484819581C8
:10094000805D9C4F84839583885E934080F0848390
:1009500095838FEF9081981B919390819F4F9193F6
:1009600090819F4F919390819F4F919336F39F91E8
:10097000FF91EF918F918FBF8F911895EF93FF9318
:10098000F898EAE7FCE30BC0EF93FF93F898EAE7E7
:10099000FCE333C0EF93FF93EAE7FCE35BC02F93E4
:1009A0002FB72F938F939F93AF93BF936894CF9359
:1009B000DF9320E0C085D8E09089DF01A90FB21F46
:1009C000AF5ABF4F8C9120E42C838A839F5F9F7125
:1009D0008D812785291302C08F7D8D83908BDF91B8
:1009E000CF910EF03ECDBF91AF919F918F912F91FE
:1009F0002FBF2F91FF91EF9118952F932FB72F9322
:100A00003F938F939F93CF93DF93C085D8E08981E5
:100A100098818674880F3485382B82FD0DC0C5857A
:100A200081E08C0F8F732685281791F0CE0FDF2F72
:100A300020E0D21F998B85873487DF91CF919F91DA
:100A40008F913F912F912FBF2F91FF91EF9118958B
:100A50003064F2CF8F938FB78F939F93CF93DF93B1
:100A6000C085D8E09D8188818C8187FDFCCF9F7BEC
:100A700090689D83DF91CF919F918F918FBF8F91D0
:100A8000FF91EF9118951F920F920FB60F921124BC
:100A90008F939F9381E08093430190916B3C9111E0
:100AA00002C080936C3C9F918F910F900FBE0F906E
:100AB0001F9018951F920F920FB60F9211248F93CB
:100AC0008BB18093490481E080932F3C8F910F90EC
:100AD0000FBE0F901F901895ABE0B0E0E1E7F5E096
:100AE000B7C66C017B013A01FC0116821782838133
:100AF00081FFFFC0CE0101964C01F601B380F701E2
:100B0000B3FC0591B3FE01917F01002341F1053251
:100B100039F4B3FC0591B3FE01917F01053239F53B
:100B2000B601802F90E01BD753013501E6CF106846
:100B3000F701B3FC0591B3FE01917F0117FD0DC0D4
:100B4000002369F0602F70E083E890E0CBD6892B1A
:100B500079F7033251F00C3651F301110AC0F60156
:100B6000868197812B96EEE08CC610E1E1CF10E0F4
:100B7000E5CF602F70E08CE790E0B4D6892B49F088
:100B80005301F4E0AF0EB11CB6018FE390E0E7D65D
:100B9000CCCF033609F452C0033709F459C00335EA
:100BA00009F455C0043619F0093609F070C0530134
:100BB00017FF62C0F4E0AF0EB11CF30160817181D8
:100BC000828193811F7E97FF08C0909580957095D4
:100BD00061957F4F8F4F9F4F10642AE030E0A40152
:100BE000EED6082F081916FF04C0B6018DE290E07A
:100BF000B6D614FF13C0FE01E00FF11D80818033D3
:100C000069F0B60180E390E0AAD612FF07C0107227
:100C1000812F90E0B601885A9F4FA1D6015010E075
:100C20000F5F1F4F080D191DF80182918F01B6014A
:100C300090E095D608151905B9F777CF530182E0F2
:100C4000A80EB11CB601F30180819181A0CF116083
:100C50005301F2E0AF0EB11CF30160807180F3012B
:100C600010FD859110FF81913F01882309F45DCF2C
:100C7000B60190E074D6F3CFF2E0AF0EB11CF301F1
:100C800060817181072E000C880B990B9BCF003778
:100C900009F140F4083501F10F3609F060CF28E082
:100CA00030E00CC0053739F0083709F058CF14622E
:100CB00020E130E003C01F7E2AE030E0530117FF3F
:100CC0000FC0F4E0AF0EB11CF3016081718182812D
:100CD000938185CF1061EBCF146020E132E0EECF3D
:100CE000F2E0AF0EB11CF3016081718190E080E011
:100CF00076CF8FEF9FEF36CFEAE7FCE312821382C5
:100D000088EE93E0A0E0B0E084839583A683B78368
:100D100082EE9BE98083918380E098E080879187D1
:100D20001286138680ED97E08093F73C9093F83C11
:100D30000895CF93DF9300D000D0CDB7DEB788ED14
:100D400093E084BF90936100E0E0F6E081E5828368
:100D50008DE0858300E2038381E0808310920202AC
:100D60008093030A1EEF1093260A1093270A49E086
:100D7000F42EF092000A82E080930A0A7894E1DB74
:100D8000D1DB88E080935004809351048093530416
:100D9000809354040093410400934604109301048B
:100DA00080EF80932104E5DBF092520480910006ED
:100DB0008E7F80930006809101068E7F80930106CE
:100DC000809102068E7F80930206809120088E7F9C
:100DD000809320087894B1DA60932B3C70932C3C7C
:100DE00080932D3C90932E3CA8DA78DA6093273CD0
:100DF0007093283C8093293C90932A3C9EDA609320
:100E0000593C70935A3C80935B3C90935C3C80913E
:100E100001148093183C809102148093193C8091B6
:100E2000183C9091193C019631F48CEE93E180933B
:100E3000183C9093193C80915000897F8460809386
:100E400050008091500081608093500030ECD32E90
:100E5000CC24C39440905E9B50905F9B6090609BBD
:100E60007090619B80916D3C90912F3C913041F44A
:100E700010922F3C80914804869586958927817031
:100E8000882391F310926D3C8091863C80FF10C0C6
:100E90008AE79CE333DBE091823CF091833C16824D
:100EA0001582D4828091883C8093873C1092863C46
:100EB000FFB6F894E091823CF091833C168283E087
:100EC00087838DEA90E080879187148680E8858308
:100ED000D6829091853C0091843C809101029923B7
:100EE00009F4D8C0816080930102090F1127111FF6
:100EF000000F111F000F111F0C56144661E0D8019E
:100F00008C9143DB62E0F80181813FDBFFBE0AE0A8
:100F100010E0FF24F39462E08AE037DB62E08BE0CC
:100F200034DB10921608F0921308F092150890E046
:100F300080E0F5D8882309F4AFC0F092643C80E1EA
:100F40008093A00087E1809302068DE180930606DE
:100F500081E080930006809308068091080680FD5A
:100F6000FCCF609110067091110680E09CE291D553
:100F70007B01F6DAFEDA81E080931A3C8091183C1E
:100F80009091193C2091163C3091173C82179307A1
:100F900021F08093163C9093173C8091163C9091E1
:100FA000173C10924701209141012111FCCF809301
:100FB0004A0190934B0180914201816080934201EC
:100FC00089EA809340011701FDE12F1A31088091D1
:100FD0006C3C81110EC48091480499249394982FFD
:100FE000947082FD912C8091633C91115CC08111C1
:100FF00009C0A3D960935F3C7093603C8093613CCF
:101000009093623C9092633C80916B3C81112DC324
:101010003DE1E316F10438F4F89480E1809327046D
:1010200080E289B9789482E02816310408F015C26C
:1010300000E210911A3C113059F57FD92091593CAA
:1010400030915A3C40915B3C50915C3C4B015C01BF
:10105000821A930AA40AB50AA50194012D37310515
:101060004105510530F36093593C70935A3C80938D
:101070005B3C90935C3C8091583C8F5F8093583CE4
:10108000853008F4D7C16CDA1092583C10921A3CA3
:101090003FDB9DCF8E7F27CF1092643C015011091A
:1010A00009F039CF4CCF882309F4ACCF10916B3CB9
:1010B00044D920915F3C3091603C4091613C50911B
:1010C000623CDC01CB01821B930BA40BB50B1123FB
:1010D00009F422C1843C29E09207A105B10518F06A
:1010E00010926B3C8FCF803233E09307A105B1059E
:1010F00008F4DCC01092693C10926A3C0091673C95
:101100001091683CF801EE0FFF1FE85FF34C8081FF
:101110000230110509F4A3C07CF40115110509F48E
:101120007EC00130110509F48DC00F5F1F4F009381
:10113000673C1093683C66CF0430110509F4A9C0E0
:101140000CF49AC00530110581F79091643C992305
:1011500061F39091F73C891B6AE08FD48295807F80
:10116000980F9093003D89EF9CE30E94AE0080931E
:101170006A3CE091123CF091133C2091103C30917C
:10118000113CA0900E3CB0900F3C233031051CF474
:10119000245F3F4F3197A9014F5F5F4FCA01880F0E
:1011A000991F840F951F65E070E087D4220F331FCD
:1011B000A20EB31EA60EB71EAE0EBF1EBF01F7FFD6
:1011C00002C06D5F7F4F7595679575956795A60E03
:1011D000B71ECF016CE97FEF70D4A60EB71ECF010A
:1011E00060E971E06AD4C501860F971F019667E038
:1011F00070E063D48093143C9093153C873008F0E2
:1012000086E09C2D01C0990F8A95EAF79093FD3CEA
:1012100089EF9CE30E94AE0010926B3C86CF9091C8
:10122000643C992309F481CF6AE027D48295807FBA
:10123000980F9093FC3C89EF9CE30E94AE00809352
:101240006A3C73CF9091643C992309F46ECF6AE0B5
:1012500014D48295807F980F9093FB3CECCF9091B3
:10126000643C992309F461CF6AE007D48295807FBA
:10127000980F9093FA3CDFCF9091643C992309F446
:1012800054CF6AE0FAD38295807F980F9093FE3C0A
:10129000D2CF9091643C992309F447CF6AE0EDD313
:1012A0008295807F980F9093FF3CC5CF4997A10509
:1012B000B10508F4A7CE4091673C5091683C9A0173
:1012C000220F331FF901E85FF34C80819181019671
:1012D0008083918328573446D9012D913C9128175A
:1012E000390708F08FCE4430510539F4E1E0F0E0E1
:1012F000E093103CF093113C85CE4530510549F404
:1013000030EDA32E37E0B32EA092123CB092133CE6
:1013100079CE1082118276CE883E23E09207A10515
:10132000B10508F468C021E020936B3C1092673C43
:101330001092683C8091FC3C982F92959F703AE007
:101340008F70939F800D112490E08093083C9093C0
:10135000093C8091FB3C982F92959F708F70939FD2
:10136000800D112490E080930A3C90930B3C809177
:10137000FA3C982F92959F708F70939F800D112447
:1013800090E080930C3C90930D3C8091FE3C982F14
:1013900092959F708F70939F800D112490E08093A1
:1013A0000E3C90930F3C8091FF3C982F92959F703C
:1013B0008F70939F800D112490E08093103C909348
:1013C000113C8091003D982F92959F708F70939F54
:1013D000800D11244091F73C5091F83C840F952FDB
:1013E000911D8093123C9093133C20936A3C109281
:1013F000693CBFD807CE4997A105B10508F402CED4
:101400008091653C9091663C019662E070E055D316
:101410008093653C9093663C892B31F410925E3C3E
:1014200081E080935D3CEECD81E080935E3C109244
:101430005D3CE8CD8091573C18271093573C80E1E4
:10144000111101C080E020EF922E90922504F894B3
:101450008093270409B97894ECCD2FE1E216F104CA
:1014600008F4B5CD10924E3C11E08AE79CE30E944F
:10147000070218161906C4F48AE79CE30E94E501E6
:101480008A3029F410934E3C1092353CEECF1092E6
:101490004E3C9091353CE92FF0E0EA5CF34C8083C0
:1014A0009F5F9093353CE1CF80914E3C882309F4B7
:1014B000D9C010924E3CE6E3FCE380E091919A3370
:1014C00009F48F5F3CE3ED34F307C1F780934D3CA3
:1014D000863008F478C060EF7BE986E39CE30DD2A8
:1014E000E4D18093513C60EF7BE990E080E005D24D
:1014F000DCD18093503C60EF7BE990E080E0FDD14F
:10150000D4D180934F3C60EF7BE990E080E0F5D14F
:10151000CCD18093523C60EF7BE990E080E0EDD14C
:10152000C4D18093533C60EF7BE990E080E0E5D14B
:10153000BCD18093543C60EF7BE990E080E0DDD14A
:10154000B4D18093553C60EF7BE990E080E0D5D149
:10155000ACD1A8EEB3E08A9FA0018B9F500D9A9F5B
:10156000500D112449835A83842F909101149417AC
:1015700079F0A1E0B4E1E0E0F0E10FB62281237060
:10158000E9F7F8948C938DE984BF83E080830FBEE4
:101590009A8180910214981779F0A2E0B4E1E0E01A
:1015A000F0E10FB622812370E9F7F8949C939DE94E
:1015B00094BF93E090830FBE4093183C5093193C26
:1015C00081E08093563C8091563C882309F460CD9D
:1015D0003091553C4091543CE091533C5091523CE9
:1015E000F091513CA091503C80914F3C2AE0622FF9
:1015F00044D28295807F980F9093FA3C8A2F3DD2F7
:101600008295807F980F9093FB3C8F2F36D28295E6
:10161000807F980F9093FC3C8E2F2FD28295807FF5
:10162000980F9093FE3C8C2D01C0880F5A95EAF7D5
:101630008093FD3C842F21D28295807F980F9093D8
:10164000FF3C8091F73C381B832F17D28295807F17
:10165000980F9093003D89EF9CE30E94AE0010929A
:10166000563C16CD1092563CAECF80916A3C8823F2
:10167000D9F18091693C811137C00091673C10918C
:10168000683C8091343C81110DC00E949D016093A3
:10169000303C7093313C8093323C9093333C81E0FA
:1016A0008093343C0E949D018090303C9090313C6E
:1016B000A090323CB090333C681979098A099B09A3
:1016C000603D77408105910508F056C00230110554
:1016D00009F449C0D4F50115110509F441C085EF9D
:1016E0009BE901301105D1F180916A3C811155C00F
:1016F0008091693C882309F450C0E091673CF091E7
:10170000683CEE0FFF1FE85FF34C808191814982B6
:101710005A826B827C820097C9F1FE0131965F018B
:101720008F0130E020E0181619060CF046C0243076
:10173000310509F442C06AE070E0BFD1D8018D9351
:101740008D01CB012F5F3F4FEECF0430110589F0A3
:101750006CF086E09CE90530110531F6A9D8C4CFBC
:1017600082EF9BE9FBCF89EF9BE9F8CF8DEF9BE9F7
:10177000F5CF82E09CE9F2CF81E08093693C109242
:101780006A3C1092343C0E94B902AECF198270E0DC
:1017900060E0CE0101960E94EA0280916A3C8111CC
:1017A00016CC8091693C811112CCF89480E1809331
:1017B000270480E289B978940ACCA1E0B0E0AC0FAC
:1017C000BD1FA20FB31F35952795E1E0F0E0EC0FA8
:1017D000FD1F2E0F3F1F1197A216B306C1F2F50190
:1017E00041915F015C91CF010197FC0150834C93C3
:1017F000F2CF10926C3C1092653C1092663C1092B5
:10180000673C1092683C10926B3C0E94B9020E94A7
:10181000B0028AE79CE30E947E028AE79CE30E9472
:101820007E02E091823CF091833C16821582D48244
:101830008091883C8093873C1092863C0E94A10254
:101840000E94920288950ECB2F923F924F925F9208
:101850006F927F928F929F92AF92BF92CF92DF92C0
:10186000EF92FF920F931F93CF93DF93CDB7DEB725
:10187000CA1BDB0BCDBFDEBF09942A883988488894
:101880005F846E847D848C849B84AA84B984C8849C
:10189000DF80EE80FD800C811B81AA81B981CE0F93
:1018A000D11DCDBFDEBFED010895FC01882799272A
:1018B000E89421912032E9F3293010F02E30C8F35A
:1018C0002B3239F02D3231F4689403C040D0820FAE
:1018D000911D219120532A30C8F31EF490958195D3
:1018E0009F4F0895FC010590061621F00020D9F7BE
:1018F000C00108953197CF01089542E05DE300C033
:10190000FA01A191B081009719F41097E1F0CD018F
:10191000DC01CD010D90002011F4C00113C0FB01CA
:101920002191222319F02015D9F7F3CFFB01219142
:10193000201519F41E92119606C02223C1F70D90AE
:101940000020A1F7D001FA01A193B08308957AE0B5
:10195000979F902D879F802D910D112408950F93AF
:101960001F93CF93DF93182F092FEB018B8181FDFC
:1019700009C01FEF0FEF812F902FDF91CF911F91A3
:101980000F91089582FF14C02E813F818C819D812B
:10199000281739073CF4E881F981CF010196888343
:1019A000998310838E819F8101968E839F83E3CFDD
:1019B000E885F985812F0995892BA1F3DACFFA0102
:1019C000AA27283051F1203181F1E8946F936E7F7E
:1019D0006E5F7F4F8F4F9F4FAF4FB1E03ED0B4E06F
:1019E0003CD0670F781F891F9A1FA11D680F791FB0
:1019F0008A1F911DA11D6A0F711D811D911DA11DC1
:101A000020D009F468943F912AE0269F11243019D0
:101A1000305D3193DEF6CF010895462F4770405D6B
:101A20004193B3E00FD0C9F7F6CF462F4F70405D1A
:101A30004A3318F0495D31FD4052419302D0A9F775
:101A4000EACFB4E0A6959795879577956795BA956F
:101A5000C9F700976105710508959B01AC010A2E35
:101A600006945795479537952795BA95C9F7620F0C
:101A7000731F841F951FA01D0895991B79E004C052
:101A8000991F961708F0961B881F7A95C9F78095BD
:101A90000895AA1BBB1B51E107C0AA1FBB1FA617B5
:101AA000B70710F0A61BB70B881F991F5A95A9F707
:101AB00080959095BC01CD01089597FB072E16F4F3
:101AC000009406D077FD08D0E4DF07FC05D03EF493
:101AD000909581959F4F0895709561957F4F0895DA
:101AE00007D08F93892F04D099270F90800D0895E8
:101AF000082E817006940694811D0694811D06941B
:101B0000811D0694811D0694811D0694801D0895F3
:101B100015D0B7FF0895821B930B08950FD0A59F92
:101B2000900DB49F900DA49F800D911D11240895D8
:101B3000EE0FFF1F0590F491E02D0994A29FB001D4
:101B4000B39FC001A39F700D811D1124911DB29FF1
:0E1B5000700D811D1124911D0895F894FFCF92
:101B5E00FFFFFFFFBEF872BCF6E67EE80C1C767047
:101B6E00A8A8B8E6CEA0DAF0383828ECDC967E0CC1
:101B7E00B69ECCDAFA0EFEDE100017003B003B00DC
:101B8E001F000C00340809080A0B12131400040578
:101B9E0006070706050403020100000102030405FF
:101BAE000102030000000000010101010101010119
:101BBE00020202020202000000001020408080405B
:101BCE00201008040201010204081020020408017A
:101BDE00000000003202A901D6017E020702E501D3
:101BEE00F9013A004852004D494E00534543004416
:0D1BFE00415445004D4F4E005945415200E5
:101C0B00C80000000A0A0A0A0000000000000000D9
:0C1C1B000000E60700008813EC13010035
:00000001FF
