:100000003EC000006FC000006DC000006BC000006B
:1000100069C0000010C50000FDC4000063C00000FE
:1000200061C00000A1C400005DC000005BC0000012
:1000300059C0000057C0000055C0000053C0000068
:1000400051C000004FC000004DC000004BC0000078
:1000500049C0000047C0000045C0000043C0000088
:1000600041C000003FC000003DC0000010C40000BF
:1000700009C4000011C4000035C000002D05112482
:100080001FBECFEFCDBFDFE3DEBF80914000809386
:100090004000811105C098ED21E094BF20934100FC
:1000A0008CBB2CE3AAE0BCE301C01D92AE3DB207BD
:1000B000E1F71CE3A0E0BCE3EDECF1E102C0059048
:1000C0000D92AA30B107D9F710E0CFE3D0E004C019
:1000D0002197FE010E949708CE33D107C9F7D4D4E7
:1000E0000C94AC088DCF9091150896FFFCCF8093AF
:1000F000180882E080931408809115088295817019
:1001000091E089270895892BC9F08FEF9FEF8093A5
:10011000563C9093573C81E0846680931708809109
:100120001508807CE1F38091150883FD09C080915A
:1001300015088295817091E08927089580E0ECCFC1
:1001400080E00895CF93DF93EC0190E080E0DBDF67
:10015000811102C080E032C080E1C5DF8823D1F385
:100160008FEF9FEFD0DF8823A9F3FE019E01285F68
:100170003F4F46E052E08091563C9091573C0097AB
:1001800029F001978093563C9093573C8091150835
:1001900087FFFCCF809118086091563C7091573CC6
:1001A000672B79F05093140881932E173F0719F7A6
:1001B00087E08093140881E0CD2B61F2DF91CF912D
:1001C000089540931408F0CFAF92BF92CF92DF9280
:1001D000EF92FF920F931F93CF93DF936C017B01FC
:1001E0008B01040F151FEB015E01AE18BF08C0178D
:1001F000D10759F06991D601ED91FC910190F08100
:10020000E02DC6010995892B79F7C501DF91CF91C2
:100210001F910F91FF90EF90DF90CF90BF90AF9024
:100220000895FC0153894489252F30E0842F90E004
:10023000821B930B541710F04F9608950197089561
:10024000FC0191898289981761F0A289AE0FBF2FB6
:10025000B11D55968C9192899F5F9F73928B90E010
:1002600008958FEF9FEF0895FC0191898289981777
:1002700031F08289E80FF11D858990E008958FEFB4
:100280009FEF0895FC0191892289892F90E0805C7D
:100290009F4F821B91098F7399270895CF93DF9306
:1002A000EC01E881F9810680F781E02D0995EC8564
:1002B000FD85868116828581158280E484838A8902
:1002C000898B188ADF91CF910895DC010FB607FE64
:1002D00004C0809111018823B1F01C96ED91FC912E
:1002E0001D97848185FF0FC053969C915397549618
:1002F0008C91981721F085818F7D85830895E8E59D
:10030000FCE3E894D4C208950F931F93CF93DF9337
:10031000EC018889982F9160988B2B899C892913EF
:100320000AC0EC85FD85948195FF05C081FD0DC057
:1003300080E4848312C0062F1B891F5F1F718C8984
:10034000811315C0CE01C1DFFACF85818F7780641C
:1003500090E49483EC85FD858583EC85FD8562833F
:1003600081E090E0DF91CF911F910F910895EB898B
:10037000EC0FFD2FF11DEB5AFF4F00831B8BEC851B
:10038000FD85888981FF09C085818F77806690E42B
:100390009483EC85FD858583E3CF85818062FBCFE7
:1003A000CF93DF93EC018889882359F0EC85FD8594
:1003B000858185FD03C0848186FD03C0CE0185DF74
:1003C000F5CFDF91CF91089581E008958FB7F8942C
:1003D0006091210A90910B0A2091173C3091183CB2
:1003E0004091193C50911A3C8FBF8EEF861B91FFB4
:1003F00006C0843020F42F5F3F4F4F4F5F4F93E094
:10040000899FF0011124982F92959F70E91BF109A3
:1004100086958695E80FF11DA0E3B3E07ED66E0FBA
:100420007F1F811D911D0895E0E2F4E081E081834A
:1004300082E08183F89484818E7F848384818D7FA0
:10044000848378940895E0E2F4E084E0818388E096
:100450008183F89484818B7F84838481877F8483E4
:1004600078940895F89480E2809346048EEF809308
:10047000060480EF80932504789408950F931F93CA
:10048000CF93DF93EC01A2DF60930C3C70930D3CA3
:1004900080930E3C90930F3C00911B3C10911C3CB0
:1004A00020911D3C30911E3C601B710B820B930B05
:1004B0006A30710581059105D0F18EEF80930604B5
:1004C00080EF80932504F89480910A3C90910B3C36
:1004D00021E130E0082E01C0220F0A94EAF7207FC4
:1004E00020932704C80FD91FE881F0E0E45AFE46A4
:1004F000808181B9789480910A3C90910B3C01965F
:1005000084309105CCF480930A3C90930B3C80910D
:100510000C3C90910D3CA0910E3CB0910F3C80930F
:100520001B3C90931C3CA0931D3CB0931E3CDF9160
:10053000CF911F910F91089510920A3C10920B3C9D
:10054000E6CFCF92DF92EF92FF92CF93DF93CDB7BA
:10055000DEB72897CDBFDEBF8FB7F894C090483C78
:10056000D090493CE0904A3CF0904B3C8FBFC09209
:10057000113CD092123CE092133CF092143C8091DA
:100580001F3C9091203CA091213CB091223CA701BE
:100590009601281B390B4A0B5B0BDA01C901883E17
:1005A0009340A105B10508F447C08091533C8823CE
:1005B00009F48BC083ED9CE3C5DD882309F485C075
:1005C0008091D33C982F92959F702AE08F70929FD4
:1005D000800D1124833659F09091D43C392F3295F7
:1005E0003F709F70329F900D11249B33D1F49981FD
:1005F000292F22952F709F704AE0249F900D11247F
:10060000981748F488E0FE013196A3EDBCE3019011
:100610000D928A95E1F7CE01019694DD882309F4C5
:1006200054C081E08093103CC0921F3CD092203C8B
:10063000E092213CF092223C8091533C882309F4C3
:1006400047C08091103C882309F442C08091D63C79
:10065000982F92959F702AE08F70929F800D1124A1
:10066000622F19D5392F17D59093CD3C3093CE3CBE
:100670008091D53C982F92959F708F70929F800D9E
:10068000112409D5392F07D59093CF3C3093D03C16
:100690008091D43C982F92959F708F70929F800D7F
:1006A0001124F9D4392FF7D49093D13C3093D23C14
:1006B0008DEC9CE3E3DE2896CDBFDEBFDF91CF91CA
:1006C000FF90EF90DF90CF9008951092103CACCF48
:1006D00080E09CE3EFCFDC01ED91FC910088F18993
:1006E000E02D23E030E009948631F0F490E0FC0145
:1006F000ED56FE4620812F3FB9F0FC01E358FE463F
:10070000E081E295EE0FF0E0F460613071F4218356
:1007100089599E46DC018C918061E80FF11D808132
:10072000613029F08860808308952283F1CF877F2C
:10073000FACF8F929F92AF92BF92EF92FF920F9358
:100740001F93CF93DF938C014A015B01E901DC0128
:1007500050968C91509780FF07C0ED91FC910288D4
:10076000F389E02DC8010995C11101C0C3E0EC2E49
:10077000E894E2F8FD2ECD2FD095D07CB5EB8B160A
:10078000B4EC9B06B4E0AB06B10428F0D260B6949A
:10079000A7949794879460E07DE281E391E0A501BE
:1007A000940199D42034310510F420E430E0F2FCB7
:1007B000D8608C2F8B72D7FD8068CD2FC87C83FFCB
:1007C00007C0C83C29F4F80190899260908BC8ED6D
:1007D00080FDC160FFB6F894D8011C96ED91FC91A4
:1007E0001682E7822087318785FF3FC0CF7791E06F
:1007F00094879FEF95878F7D8583D683F801278522
:10080000868590910102222391F1916090930102DB
:10081000820F9927991F880F991F880F991F8C01A4
:1008200007551E46C6FF25C0C3FD23C061E0D801A1
:100830008C915ADFC7FF07C0C4FD05C062E0D80134
:1008400011968C9151DFC0FF04C061E0F8018381F3
:100850004BDFFFBEDF91CF911F910F91FF90EF9083
:10086000BF90AF909F908F9008951486C4CF9E7FC5
:10087000CDCF2C2F2075F1F287559E4662E0FC010A
:100880008081D7CFEF93FF93E8E5FCE308C0EF93B7
:10089000FF93E8E5FCE331C0EF93E0E052C02F9313
:1008A0002FB72F938F939F93AF93BF936894CF935A
:1008B000DF9320E0C485D8E09489DF01A90FB21F3F
:1008C000AB5ABF4F8C9120E42C838A839F5F9F712A
:1008D0008D812389291302C08F7D8D83948BDF91B5
:1008E000CF910EF010CDBF91AF919F918F912F912D
:1008F0002FBF2F91FF91EF9118952F932FB72F9323
:100900008F939F93CF93DF93C485D8E0898198819B
:1009100081FD0DC0C18981E08C0F8F73228928175A
:1009200031F0CE0FDF2F20E0D21F9D8B818BDF9126
:10093000CF919F918F912F912FBF2F91FF91EF9189
:100940001895FF938F938FB78F93F8E08081848100
:1009500087FFFCCF85818F7B806885838F918FBFD8
:100960008F91FF91EF9118951F920F920FB60F92F2
:1009700011242F933F934F935F936F938F939F9384
:10098000AF93BF938091483C9091493CA0914A3CE1
:10099000B0914B3C4091153C5091163C9A01205D22
:1009A0003C4F283E63E0360728F0285E334001962E
:1009B000A11DB11D2093153C3093163C8093483CFB
:1009C0009093493CA0934A3CB0934B3C8091173C98
:1009D0009091183CA091193CB0911A3C0196A11D30
:1009E000B11D8093173C9093183CA093193CB09391
:1009F0001A3C82E080930B0ABF91AF919F918F9137
:100A00006F915F914F913F912F910F900FBE0F907B
:100A10001F9018951F920F920FB60F9211248F936B
:100A200081E0809343018093543C8F910F900FBEDF
:100A30000F901F9018951F920F920FB60F921124CE
:100A40008F938BB18093490481E08093233C8F91F5
:100A50000F900FBE0F901F901895E8E5FCE31282EF
:100A6000138288EE93E0A0E0B0E084839583A683B0
:100A7000B78385EB91E98083918380E098E0848758
:100A80009587168617860895CF93DF93CDB7DEB787
:100A90002697CDBFDEBF88ED93E084BF90936100C1
:100AA00081E5809302062DE0F22EF092050600E229
:100AB0000093030681E0809300068093030A1EEFF3
:100AC0001093260A1093270A89E08093000A8091E8
:100AD0000A0A826080930A0A78947894B4DCA4DCD1
:100AE00088E0809350048093510480935304809352
:100AF000540400934104009346041093010480EFD2
:100B000080932104AFDCF0925204809100068E7F26
:100B100080930006809120088E7F8093200878942F
:100B20002FB7F8948091483C9091493CA0914A3C61
:100B3000B0914B3C2FBF80931F3C9093203CA093DF
:100B4000213CB093223C42DC60931B3C70931C3CE4
:100B500080931D3C90931E3C2FB7F8948091483CA5
:100B60009091493CA0914A3CB0914B3C2FBF80935F
:100B70004F3C9093503CA093513CB093523C809199
:100B800001148093043C809102148093053C809171
:100B90005000897F84608093500080915000816074
:100BA0008093500030E1332E40EF542E22242394C2
:100BB00058EEA52E53E0B52E8091553C9091233CE4
:100BC000913041F41092233C8091480482FF04C08C
:100BD00080E0F4CF8823E1F31092553C40E052ECE2
:100BE00061E070E088E59CE376DD11E062E08AE098
:100BF0007BDD62E08BE078DD10921608109313081D
:100C00001093150890E080E07EDA882309F451C043
:100C10001093533C3092A00087E1809302068DE14F
:100C2000809306061093000610930806809108062C
:100C300080FDFCCF609110067091110680E09CE26F
:100C400036D26B01F89450922504009346047894B0
:100C500009DC2092083C1092093C8091063C90915E
:100C6000073C10924701209141012111FCCF809354
:100C70004A0190934B01809142018160809342012F
:100C800089EA80934001442443941AE08091543CC3
:100C9000811193C12FE1C216D10408F0AAC13DE130
:100CA000C316D104C8F4F8943092270409B9789493
:100CB000EDCF1092533C9ACF80914C3C8425809389
:100CC0004C3C882309F451C080E150922504F894EB
:100CD0008093270409B978948091083C9091093C4D
:100CE000019709F040C02FB7F8948091483C90914B
:100CF000493CA0914A3CB0914B3C2FBF60904F3C87
:100D00007090503C8090513C9090523C9C01AD01C1
:100D100026193709480959092D373105410551056B
:100D2000D8F280934F3C9093503CA093513CB093A9
:100D3000523C80914D3C90914E3C019680934D3CAD
:100D400090934E3C05970CF4B7CFF894509225043D
:100D500000934604789410924D3C10924E3C1092B1
:100D6000083C1092093CEDDB91CF80E0AECF1092B1
:100D70003F3C2091243C3091253CF901EA5DF34C45
:100D800080832F5F3F4F2093243C3093253C88E5A0
:100D90009CE378DA1816190664F488E59CE350DAC7
:100DA0008A3029F740923F3C1092243C1092253C17
:100DB000EECF80913F3C882309F4F7C010923F3C6E
:100DC000E6E2FCE390E080E021912A3309F4019609
:100DD0003CE3ED33F307C1F780933D3C90933E3CF9
:100DE00006970CF475C06BEC71E986E29CE321D1A7
:100DF00003D18093423C6BEC71E990E080E019D123
:100E0000FBD08093413C6BEC71E990E080E011D124
:100E1000F3D08093403C6BEC71E990E080E009D125
:100E2000EBD08093433C6BEC71E990E080E001D122
:100E3000E3D08093443C6BEC71E990E080E0F9D022
:100E4000DBD08093453C6BEC71E990E080E0F1D021
:100E5000D3D08093463C6BEC71E990E080E0E9D020
:100E6000CBD08A9DA0018B9D500D9A9D500D1124D1
:100E700049835A83842F90910114941779F0A1E04B
:100E8000B4E1E0E0F0E10FB622812370E9F7F894D5
:100E90008C938DE984BF83E080830FBE9A8180911B
:100EA0000214981779F0A2E0B4E1E0E0F0E10FB6A7
:100EB00022812370E9F7F8949C939DE994BF93E015
:100EC00090830FBE4093043C5093053C4092473CB6
:100ED0008091473C882309F446CF2091463C3091CD
:100EE000453C5091443C4091433CE091423CF09160
:100EF000413C8091403C612FCED08295807F980FFD
:100F00009093D43C8F2FC7D08295807F980F909379
:100F1000D53C8E2FC0D08295807F980F9093D63C81
:100F2000852FB9D08295807F980F9093D83C822DE1
:100F300001C0880F4A95EAF78093D73C832FABD046
:100F40008295807F980F9093D93C80E3820FA3D045
:100F50008295807F980F9093DA3C90E080E0D3D820
:100F6000882301F181E1BFD88823E1F01092DB3CB6
:100F700094EDE92E9CE3F92EF70181917F01B3D81E
:100F8000882329F08091DB3C8F5F8093DB3CFBED75
:100F9000EF16FCE3FF0681F78091DB3C873041F4DC
:100FA000809314081092473CDECE1092473C90CFBD
:100FB00087E0682E60921408F5CF1092543C80911F
:100FC000043C9091053C2091063C3091073C8217EF
:100FD000930721F08093063C9093073C43DA88E521
:100FE0009CE3DED988E59CE359D92DDA1DDA889592
:100FF000E3CD10923F3CCBCEFC0188279927E894A3
:1010000021912032E9F3293010F02E30C8F32B3231
:1010100039F02D3231F4689403C035D0820F911D20
:10102000219120532A30C8F31EF4909581959F4F4B
:1010300008954CED5CE300C0FA01A191B0810097E6
:1010400019F41097E1F0CD01DC01CD010D900020E5
:1010500011F4C00113C0FB012191222319F02015C6
:10106000D9F7F3CFFB012191201519F41E921196A7
:1010700006C02223C1F70D900020A1F7D001FA018C
:10108000A193B08308957AE0979F902D879F802D3C
:10109000910D11240895991B79E004C0991F9617AA
:1010A00008F0961B881F7A95C9F780950895AA1BAA
:1010B000BB1B51E107C0AA1FBB1FA617B70710F043
:1010C000A61BB70B881F991F5A95A9F78095909575
:1010D000BC01CD010895A1E21A2EAA1BBB1BFD0184
:1010E0000DC0AA1FBB1FEE1FFF1FA217B307E40707
:1010F000F50720F0A21BB30BE40BF50B661F771F5F
:10110000881F991F1A9469F760957095809590953E
:101110009B01AC01BD01CF0108950FD0A59F900D9B
:10112000B49F900DA49F800D911D11240895EE0F82
:10113000FF1F0590F491E02D0994A29FB001B39F89
:10114000C001A39F700D811D1124911DB29F700DD0
:0C115000811D1124911D0895F894FFCF1B
:10115C007E0CB69ECCDAFA0EFEDE100405060707EE
:10116C000605040302010000010203040501020349
:10117C000000000000010101010101010102020255
:10118C000202020000000010204080804020100865
:10119C000402010102040810200204080109080AD3
:1011AC000B12131400000000008401E4001101D0A4
:1011BC00014201200134016B0399034E01E4013A11
:0111CC000022
:0A11CD000A0A0A0A0410A00F01002C
:00000001FF
